S029000041726475696E6F20456C656374726F6E6963205069616E6F204B6579626F6172642E7372656399
S11300000C9434000C9446000C9446000C94460066
S11300100C9446000C9446000C9446000C94460044
S11300200C9446000C9446000C9446000C94460034
S11300300C9446000C9446000C9446000C94460024
S11300400C9472020C9446000C9446000C944600E6
S11300500C9446000C9485020C9446000C944600C3
S11300600C9446000C94460011241FBECFEFD8E038
S1130070DEBFCDBF21E0A0E0B1E001C01D92AC30F5
S1130080B207E1F70E9470010C946B040C94000019
S11300908F929F92AF92BF92CF92DF92EF92FF9294
S11300A04B015C0169017A018AB180628AB984B525
S11300B0836284BD85B58C6085BDC501B4010E9491
S11300C0180367BD20E030E040E05FE3C501B40100
S11300D00E94FE030E94180368BD6091060170919E
S11300E00701072E000C880B990B0E9449039B0102
S11300F0AC0160E070E080E792E40E94A602A701F0
S113010096010E94FE0320E030E04AE754E40E9496
S1130110FE036B017C0160930801709309018093D5
S11301200A0190930B0120E030E04AE755E40E9475
S1130130FE034B015C0120E030E040E85FE30E94F5
S1130140A102882324F120E03FEF4FE757E4C501E3
S1130150B4010E94F9031816ACF420E030E040E248
S113016051E4C701B6010E94FE030E94180306C0B1
S113017080E991E00197F1F761507109611571050A
S1130180B9F70AC0C501B4010E94180302C061E0B6
S113019070E0CB010197F1F78AB11AB880E49CE9C9
S11301A00197F1F7FF90EF90DF90CF90BF90AF9061
S11301B09F908F9008958F929F92AF92BF92CF920B
S11301C0DF92EF92FF926B017C018AB11AB86091C1
S11301D0060170910701072E000C880B990B0E94F1
S11301E049039B01AC0160E070E080E792E40E9467
S11301F0A602A70196010E94FE0320E030E04AE730
S113020054E40E94FE036B017C0160930801709327
S1130210090180930A0190930B0120E030E04AE742
S113022055E40E94FE034B015C0120E030E040E80D
S11302305FE30E94A102882324F120E03FEF4FE70F
S113024057E4C501B4010E94F9031816ACF420E088
S113025030E040E251E4C701B6010E94FE030E946F
S1130260180306C080E991E00197F1F76150710924
S113027061157105B9F70AC0C501B4010E941803DC
S113028002C061E070E0CB010197F1F7FF90EF90BD
S1130290DF90CF90BF90AF909F908F90089587B1DB
S11302A08E7F87B988B118B8ECE7F0E080818F7150
S11302B08083808182608083EBE7F0E08081887FA7
S11302C08083EEE7F0E0808184608083EAE7F0E0F9
S11302D08081886880837894808180648083089595
S11302E00E944F018CE390E09093070180930601F4
S11302F080910001909101018F3F9340A9F420E087
S113030030E040E05FE361E173EE8DE693E40E9448
S1130310480084EC99E005C0E0E9F1E03197F1F799
S113032001970097C9F7E4CF8091000190910101F2
S11303308E3D9340E4F08091000190910101833F50
S11303409340ACF420E030E040E05FE367EC74ED10
S113035083E593E40E94480084EC99E005C0E0E959
S1130360F1E03197F1F701970097C9F7C1CF809178
S1130370000190910101803C9340E4F080910001E0
S113038090910101853D9340ACF420E030E040E0E1
S11303905FE365E47BE98CE393E40E94480084EC2A
S11303A099E005C0E0E9F1E03197F1F70197009792
S11303B0C9F79ECF80910001909101018438934048
S11303C0E4F08091000190910101823B9340ACF4F0
S11303D020E030E040E05FE364E177EF81E393E421
S11303E00E94480084EC99E005C0E0E9F1E031970F
S11303F0F1F701970097C9F77BCF809100019091A5
S113040001018A389240E4F0809100019091010149
S1130410873C9240ACF420E030E040E05FE364E5E8
S113042070E78EE193E40E94480084EC99E005C0F3
S1130430E0E9F1E03197F1F701970097C9F758CF58
S11304408091000190910101843F9140E4F08091FA
S113045000019091010187329240ACF420E030E039
S113046040E05FE360E070E08DE093E40E944800C8
S113047084EC99E005C0E0E9F1E03197F1F70197E8
S11304800097C9F735CF80910001909101010A9737
S1130490DCF08091000190910101C397ACF420E05D
S11304A030E040E05FE361E179E18BEF92E40E94A8
S11304B0480084EC99E005C0E0E9F1E03197F1F7F8
S11304C001970097C9F714CF809100019091010121
S11304D006970CF00DCF60E070E080E090E40E949D
S11304E0DB0006CF1F920F920FB60F9211248F9349
S11304F09F93809100019091010187BD9F918F91FD
S11305000F900FBE0F901F9018951F920F920FB669
S11305100F9211242F938F939F938091790090E0F1
S1130520982F882720917800822B90930101809343
S113053000019F918F912F910F900FBE0F901F90EC
S113054018950E94840308F481E008950E94BA0279
S11305500C94BF030E94B80358F00E94B10340F00A
S113056029F45F3F29F00C94A80351110C94F30370
S11305700C94AE030E94D00368F39923B1F355237E
S113058091F3951B550BBB27AA27621773078407A2
S113059038F09F5F5F4F220F331F441FAA1FA9F338
S11305A035D00E2E3AF0E0E832D091505040E69526
S11305B0001CCAF72BD0FE2F29D0660F771F881F87
S11305C0BB1F261737074807AB07B0E809F0BB0B7A
S11305D0802DBF01FF2793585F4F3AF09E3F51058E
S11305E078F00C94A8030C94F3035F3FE4F3983E73
S11305F0D4F3869577956795B795F7959F5FC9F777
S1130600880F911D9695879597F90895E1E0660FF7
S1130610771F881FBB1F621773078407BA0720F070
S1130620621B730B840BBA0BEE1F88F7E0950895D9
S11306300E94D80388F09F5798F0B92F9927B75193
S1130640B0F0E1F0660F771F881F991F1AF0BA9572
S1130650C9F714C0B13091F00E94F203B1E00895DB
S11306600C94F203672F782F8827B85F39F0B93FCD
S1130670CCF3869577956795B395D9F73EF4909525
S11306808095709561957F4F8F4F9F4F0895E894A3
S113069009C097FB3EF490958095709561957F4FC6
S11306A08F4F9F4F9923A9F0F92F96E9BB27939574
S11306B0F695879577956795B795F111F8CFFAF484
S11306C0BB0F11F460FF1BC06F5F7F4F8F4F9F4FB5
S11306D016C0882311F096E911C0772321F09EE813
S11306E0872F762F05C0662371F096E8862F70E079
S11306F060E02AF09A95660F771F881FDAF7880F53
S11307009695879597F90895990F0008550FAA0BA8
S1130710E0E8FEEF16161706E807F907C0F0121610
S11307201306E407F50798F0621B730B840B950B13
S113073039F40A2661F0232B242B252B21F4089568
S11307400A2609F4A140A6958FEF811D811D089505
S113075097F99F6780E870E060E008959FEF80EC70
S1130760089500240A941616170618060906089513
S113077000240A9412161306140605060895092E79
S11307800394000C11F4882352F0BB0F40F4BF2BE8
S113079011F460FF04C06F5F7F4F8F4F9F4F089528
S11307A057FD9058440F551F59F05F3F71F047951E
S11307B0880F97FB991F61F09F3F79F08795089503
S11307C0121613061406551FF2CF4695F1DF08C022
S11307D0161617061806991FF1CF8695710561053F
S11307E008940895E894BB2766277727CB0197F9E7
S11307F008950E94840308F48FEF08950E94110461
S11308000C94BF030E94B10338F00E94B80320F097
S1130810952311F00C94A8030C94AE0311240C94AA
S1130820F3030E94D00370F3959FC1F3950F50E03A
S1130830551F629FF001729FBB27F00DB11D639F8E
S1130840AA27F00DB11DAA1F649F6627B00DA11D34
S1130850661F829F2227B00DA11D621F739FB00DDA
S1130860A11D621F839FA00D611D221F749F33274A
S1130870A00D611D231F849F600D211D822F762FE3
S11308806A2F11249F5750409AF0F1F088234AF0C0
S1130890EE0FFF1FBB1F661F771F881F915050402C
S11308A0A9F79E3F510580F00C94A8030C94F30320
S11308B05F3FE4F3983ED4F3869577956795B795B3
S11308C0F795E7959F5FC1F7FE2B880F911D9695CD
S10D08D0879597F90895F894FFCF77
S9030000FC
